{
  "_format": "hh-sol-artifact-1",
  "contractName": "TokenFarm",
  "sourceName": "contracts/TokenFarm.sol",
  "abi": [
    {
      "inputs": [
        {
          "internalType": "address",
          "name": "_dappTokenAddress",
          "type": "address"
        }
      ],
      "stateMutability": "nonpayable",
      "type": "constructor"
    },
    {
      "anonymous": false,
      "inputs": [
        {
          "indexed": true,
          "internalType": "address",
          "name": "previousOwner",
          "type": "address"
        },
        {
          "indexed": true,
          "internalType": "address",
          "name": "newOwner",
          "type": "address"
        }
      ],
      "name": "OwnershipTransferred",
      "type": "event"
    },
    {
      "inputs": [
        {
          "internalType": "address",
          "name": "_token",
          "type": "address"
        }
      ],
      "name": "addAllowedTokens",
      "outputs": [],
      "stateMutability": "nonpayable",
      "type": "function"
    },
    {
      "inputs": [
        {
          "internalType": "uint256",
          "name": "",
          "type": "uint256"
        }
      ],
      "name": "allowedTokens",
      "outputs": [
        {
          "internalType": "address",
          "name": "",
          "type": "address"
        }
      ],
      "stateMutability": "view",
      "type": "function"
    },
    {
      "inputs": [],
      "name": "dappToken",
      "outputs": [
        {
          "internalType": "contract IERC20",
          "name": "",
          "type": "address"
        }
      ],
      "stateMutability": "view",
      "type": "function"
    },
    {
      "inputs": [
        {
          "internalType": "address",
          "name": "_token",
          "type": "address"
        }
      ],
      "name": "getTokenValue",
      "outputs": [
        {
          "internalType": "uint256",
          "name": "",
          "type": "uint256"
        },
        {
          "internalType": "uint256",
          "name": "",
          "type": "uint256"
        }
      ],
      "stateMutability": "view",
      "type": "function"
    },
    {
      "inputs": [
        {
          "internalType": "address",
          "name": "_user",
          "type": "address"
        },
        {
          "internalType": "address",
          "name": "_token",
          "type": "address"
        }
      ],
      "name": "getUserSingleTokenValue",
      "outputs": [
        {
          "internalType": "uint256",
          "name": "",
          "type": "uint256"
        }
      ],
      "stateMutability": "view",
      "type": "function"
    },
    {
      "inputs": [
        {
          "internalType": "address",
          "name": "_user",
          "type": "address"
        }
      ],
      "name": "getUserTotalValue",
      "outputs": [
        {
          "internalType": "uint256",
          "name": "",
          "type": "uint256"
        }
      ],
      "stateMutability": "view",
      "type": "function"
    },
    {
      "inputs": [],
      "name": "issueTokens",
      "outputs": [],
      "stateMutability": "nonpayable",
      "type": "function"
    },
    {
      "inputs": [],
      "name": "owner",
      "outputs": [
        {
          "internalType": "address",
          "name": "",
          "type": "address"
        }
      ],
      "stateMutability": "view",
      "type": "function"
    },
    {
      "inputs": [],
      "name": "renounceOwnership",
      "outputs": [],
      "stateMutability": "nonpayable",
      "type": "function"
    },
    {
      "inputs": [
        {
          "internalType": "address",
          "name": "_token",
          "type": "address"
        },
        {
          "internalType": "address",
          "name": "_priceFeed",
          "type": "address"
        }
      ],
      "name": "setPriceFeedContract",
      "outputs": [],
      "stateMutability": "nonpayable",
      "type": "function"
    },
    {
      "inputs": [
        {
          "internalType": "uint256",
          "name": "_amount",
          "type": "uint256"
        },
        {
          "internalType": "address",
          "name": "_token",
          "type": "address"
        }
      ],
      "name": "stakeTokens",
      "outputs": [],
      "stateMutability": "nonpayable",
      "type": "function"
    },
    {
      "inputs": [
        {
          "internalType": "uint256",
          "name": "",
          "type": "uint256"
        }
      ],
      "name": "stakers",
      "outputs": [
        {
          "internalType": "address",
          "name": "",
          "type": "address"
        }
      ],
      "stateMutability": "view",
      "type": "function"
    },
    {
      "inputs": [
        {
          "internalType": "address",
          "name": "",
          "type": "address"
        },
        {
          "internalType": "address",
          "name": "",
          "type": "address"
        }
      ],
      "name": "stakingBalance",
      "outputs": [
        {
          "internalType": "uint256",
          "name": "",
          "type": "uint256"
        }
      ],
      "stateMutability": "view",
      "type": "function"
    },
    {
      "inputs": [
        {
          "internalType": "address",
          "name": "_token",
          "type": "address"
        }
      ],
      "name": "tokenIsAllowed",
      "outputs": [
        {
          "internalType": "bool",
          "name": "",
          "type": "bool"
        }
      ],
      "stateMutability": "nonpayable",
      "type": "function"
    },
    {
      "inputs": [
        {
          "internalType": "address",
          "name": "",
          "type": "address"
        }
      ],
      "name": "tokenPriceFeedMapping",
      "outputs": [
        {
          "internalType": "address",
          "name": "",
          "type": "address"
        }
      ],
      "stateMutability": "view",
      "type": "function"
    },
    {
      "inputs": [
        {
          "internalType": "address",
          "name": "newOwner",
          "type": "address"
        }
      ],
      "name": "transferOwnership",
      "outputs": [],
      "stateMutability": "nonpayable",
      "type": "function"
    },
    {
      "inputs": [
        {
          "internalType": "address",
          "name": "",
          "type": "address"
        }
      ],
      "name": "uniqueTokensStaked",
      "outputs": [
        {
          "internalType": "uint256",
          "name": "",
          "type": "uint256"
        }
      ],
      "stateMutability": "view",
      "type": "function"
    },
    {
      "inputs": [
        {
          "internalType": "address",
          "name": "_token",
          "type": "address"
        }
      ],
      "name": "unstakeTokens",
      "outputs": [],
      "stateMutability": "nonpayable",
      "type": "function"
    }
  ],
  "bytecode": "0x60806040523480156200001157600080fd5b506040516200229938038062002299833981810160405281019062000037919062000182565b620000576200004b6200009f60201b60201c565b620000a760201b60201c565b80600660006101000a81548173ffffffffffffffffffffffffffffffffffffffff021916908373ffffffffffffffffffffffffffffffffffffffff16021790555050620001fc565b600033905090565b60008060009054906101000a900473ffffffffffffffffffffffffffffffffffffffff169050816000806101000a81548173ffffffffffffffffffffffffffffffffffffffff021916908373ffffffffffffffffffffffffffffffffffffffff1602179055508173ffffffffffffffffffffffffffffffffffffffff168173ffffffffffffffffffffffffffffffffffffffff167f8be0079c531659141344cd1fd0a4f28419497f9722a3daafe3b4186f6b6457e060405160405180910390a35050565b6000815190506200017c81620001e2565b92915050565b6000602082840312156200019557600080fd5b6000620001a5848285016200016b565b91505092915050565b6000620001bb82620001c2565b9050919050565b600073ffffffffffffffffffffffffffffffffffffffff82169050919050565b620001ed81620001ae565b8114620001f957600080fd5b50565b61208d806200020c6000396000f3fe608060405234801561001057600080fd5b50600436106101165760003560e01c8063715018a6116100a2578063b83e023411610071578063b83e0234146102cb578063dd5b8467146102fb578063f1c5d6c21461032b578063f2fde38b1461035c578063fd5e6dd11461037857610116565b8063715018a614610257578063877dd39d146102615780638da5cb5b1461027d578063af3f5e221461029b57610116565b806329161a00116100e957806329161a00146101b35780632d1ad8b8146101e35780635e5f2e26146101ff5780635eb186f81461022f57806360ab58521461024d57610116565b80630bea440d1461011b578063171e44ea14610137578063276b11da1461015357806327927b3e14610183575b600080fd5b6101356004803603810190610130919061172e565b6103a8565b005b610151600480360381019061014c9190611677565b610685565b005b61016d600480360381019061016891906116a0565b61077d565b60405161017a9190611a89565b60405180910390f35b61019d60048036038101906101989190611677565b610888565b6040516101aa9190611918565b60405180910390f35b6101cd60048036038101906101c891906116a0565b6108bb565b6040516101da9190611a89565b60405180910390f35b6101fd60048036038101906101f89190611677565b6108e0565b005b61021960048036038101906102149190611705565b610b47565b6040516102269190611918565b60405180910390f35b610237610b86565b60405161024491906119ae565b60405180910390f35b610255610bac565b005b61025f610d76565b005b61027b600480360381019061027691906116a0565b610dfe565b005b610285610efc565b6040516102929190611918565b60405180910390f35b6102b560048036038101906102b09190611677565b610f25565b6040516102c29190611a89565b60405180910390f35b6102e560048036038101906102e09190611677565b611056565b6040516102f29190611a89565b60405180910390f35b61031560048036038101906103109190611677565b61106e565b6040516103229190611993565b60405180910390f35b61034560048036038101906103409190611677565b611143565b604051610353929190611aa4565b60405180910390f35b61037660048036038101906103719190611677565b6112c9565b005b610392600480360381019061038d9190611705565b6113c1565b60405161039f9190611918565b60405180910390f35b600082116103eb576040517f08c379a00000000000000000000000000000000000000000000000000000000081526004016103e290611a29565b60405180910390fd5b6103f48161106e565b610433576040517f08c379a000000000000000000000000000000000000000000000000000000000815260040161042a90611a09565b60405180910390fd5b8073ffffffffffffffffffffffffffffffffffffffff166323b872dd3330856040518463ffffffff1660e01b815260040161047093929190611933565b602060405180830381600087803b15801561048a57600080fd5b505af115801561049e573d6000803e3d6000fd5b505050506040513d601f19601f820116820180604052508101906104c291906116dc565b506104cd3382611400565b81600160008373ffffffffffffffffffffffffffffffffffffffff1673ffffffffffffffffffffffffffffffffffffffff16815260200190815260200160002060003373ffffffffffffffffffffffffffffffffffffffff1673ffffffffffffffffffffffffffffffffffffffff168152602001908152602001600020546105559190611ade565b600160008373ffffffffffffffffffffffffffffffffffffffff1673ffffffffffffffffffffffffffffffffffffffff16815260200190815260200160002060003373ffffffffffffffffffffffffffffffffffffffff1673ffffffffffffffffffffffffffffffffffffffff168152602001908152602001600020819055506001600260003373ffffffffffffffffffffffffffffffffffffffff1673ffffffffffffffffffffffffffffffffffffffff168152602001908152602001600020541415610681576004339080600181540180825580915050600190039060005260206000200160009091909190916101000a81548173ffffffffffffffffffffffffffffffffffffffff021916908373ffffffffffffffffffffffffffffffffffffffff1602179055505b5050565b61068d611518565b73ffffffffffffffffffffffffffffffffffffffff166106ab610efc565b73ffffffffffffffffffffffffffffffffffffffff1614610701576040517f08c379a00000000000000000000000000000000000000000000000000000000081526004016106f890611a49565b60405180910390fd5b6000151561070e8261106e565b1515141561077a576005819080600181540180825580915050600190039060005260206000200160009091909190916101000a81548173ffffffffffffffffffffffffffffffffffffffff021916908373ffffffffffffffffffffffffffffffffffffffff1602179055505b50565b600080600260008573ffffffffffffffffffffffffffffffffffffffff1673ffffffffffffffffffffffffffffffffffffffff16815260200190815260200160002054116107ce5760009050610882565b6000806107da84611143565b9150915080600a6107eb9190611bb8565b82600160008773ffffffffffffffffffffffffffffffffffffffff1673ffffffffffffffffffffffffffffffffffffffff16815260200190815260200160002060008873ffffffffffffffffffffffffffffffffffffffff1673ffffffffffffffffffffffffffffffffffffffff168152602001908152602001600020546108739190611cd6565b61087d9190611b34565b925050505b92915050565b60036020528060005260406000206000915054906101000a900473ffffffffffffffffffffffffffffffffffffffff1681565b6001602052816000526040600020602052806000526040600020600091509150505481565b6000600160008373ffffffffffffffffffffffffffffffffffffffff1673ffffffffffffffffffffffffffffffffffffffff16815260200190815260200160002060003373ffffffffffffffffffffffffffffffffffffffff1673ffffffffffffffffffffffffffffffffffffffff168152602001908152602001600020549050600081116109a4576040517f08c379a000000000000000000000000000000000000000000000000000000000815260040161099b90611a69565b60405180910390fd5b8173ffffffffffffffffffffffffffffffffffffffff1663a9059cbb33836040518363ffffffff1660e01b81526004016109df92919061196a565b602060405180830381600087803b1580156109f957600080fd5b505af1158015610a0d573d6000803e3d6000fd5b505050506040513d601f19601f82011682018060405250810190610a3191906116dc565b506000600160008473ffffffffffffffffffffffffffffffffffffffff1673ffffffffffffffffffffffffffffffffffffffff16815260200190815260200160002060003373ffffffffffffffffffffffffffffffffffffffff1673ffffffffffffffffffffffffffffffffffffffff168152602001908152602001600020819055506001600260003373ffffffffffffffffffffffffffffffffffffffff1673ffffffffffffffffffffffffffffffffffffffff16815260200190815260200160002054610b009190611d30565b600260003373ffffffffffffffffffffffffffffffffffffffff1673ffffffffffffffffffffffffffffffffffffffff168152602001908152602001600020819055505050565b60058181548110610b5757600080fd5b906000526020600020016000915054906101000a900473ffffffffffffffffffffffffffffffffffffffff1681565b600660009054906101000a900473ffffffffffffffffffffffffffffffffffffffff1681565b610bb4611518565b73ffffffffffffffffffffffffffffffffffffffff16610bd2610efc565b73ffffffffffffffffffffffffffffffffffffffff1614610c28576040517f08c379a0000000000000000000000000000000000000000000000000000000008152600401610c1f90611a49565b60405180910390fd5b60005b600480549050811015610d7357600060048281548110610c74577f4e487b7100000000000000000000000000000000000000000000000000000000600052603260045260246000fd5b9060005260206000200160009054906101000a900473ffffffffffffffffffffffffffffffffffffffff1690506000610cac82610f25565b9050600660009054906101000a900473ffffffffffffffffffffffffffffffffffffffff1673ffffffffffffffffffffffffffffffffffffffff1663a9059cbb83836040518363ffffffff1660e01b8152600401610d0b92919061196a565b602060405180830381600087803b158015610d2557600080fd5b505af1158015610d39573d6000803e3d6000fd5b505050506040513d601f19601f82011682018060405250810190610d5d91906116dc565b5050508080610d6b90611dfd565b915050610c2b565b50565b610d7e611518565b73ffffffffffffffffffffffffffffffffffffffff16610d9c610efc565b73ffffffffffffffffffffffffffffffffffffffff1614610df2576040517f08c379a0000000000000000000000000000000000000000000000000000000008152600401610de990611a49565b60405180910390fd5b610dfc6000611520565b565b610e06611518565b73ffffffffffffffffffffffffffffffffffffffff16610e24610efc565b73ffffffffffffffffffffffffffffffffffffffff1614610e7a576040517f08c379a0000000000000000000000000000000000000000000000000000000008152600401610e7190611a49565b60405180910390fd5b80600360008473ffffffffffffffffffffffffffffffffffffffff1673ffffffffffffffffffffffffffffffffffffffff16815260200190815260200160002060006101000a81548173ffffffffffffffffffffffffffffffffffffffff021916908373ffffffffffffffffffffffffffffffffffffffff1602179055505050565b60008060009054906101000a900473ffffffffffffffffffffffffffffffffffffffff16905090565b600080600090506000600260008573ffffffffffffffffffffffffffffffffffffffff1673ffffffffffffffffffffffffffffffffffffffff1681526020019081526020016000205411610fae576040517f08c379a0000000000000000000000000000000000000000000000000000000008152600401610fa5906119c9565b60405180910390fd5b60005b60058054905081101561104c5761102c8460058381548110610ffc577f4e487b7100000000000000000000000000000000000000000000000000000000600052603260045260246000fd5b9060005260206000200160009054906101000a900473ffffffffffffffffffffffffffffffffffffffff1661077d565b826110379190611ade565b9150808061104490611dfd565b915050610fb1565b5080915050919050565b60026020528060005260406000206000915090505481565b600080600090505b600580549050811015611138578273ffffffffffffffffffffffffffffffffffffffff16600582815481106110d4577f4e487b7100000000000000000000000000000000000000000000000000000000600052603260045260246000fd5b9060005260206000200160009054906101000a900473ffffffffffffffffffffffffffffffffffffffff1673ffffffffffffffffffffffffffffffffffffffff16141561112557600191505061113e565b808061113090611dfd565b915050611076565b50600090505b919050565b6000806000600360008573ffffffffffffffffffffffffffffffffffffffff1673ffffffffffffffffffffffffffffffffffffffff16815260200190815260200160002060009054906101000a900473ffffffffffffffffffffffffffffffffffffffff169050600081905060008173ffffffffffffffffffffffffffffffffffffffff1663feaf968c6040518163ffffffff1660e01b815260040160a06040518083038186803b1580156111f757600080fd5b505afa15801561120b573d6000803e3d6000fd5b505050506040513d601f19601f8201168201806040525081019061122f919061176a565b50505091505060008273ffffffffffffffffffffffffffffffffffffffff1663313ce5676040518163ffffffff1660e01b815260040160206040518083038186803b15801561127d57600080fd5b505afa158015611291573d6000803e3d6000fd5b505050506040513d601f19601f820116820180604052508101906112b591906117e1565b60ff16905081819550955050505050915091565b6112d1611518565b73ffffffffffffffffffffffffffffffffffffffff166112ef610efc565b73ffffffffffffffffffffffffffffffffffffffff1614611345576040517f08c379a000000000000000000000000000000000000000000000000000000000815260040161133c90611a49565b60405180910390fd5b600073ffffffffffffffffffffffffffffffffffffffff168173ffffffffffffffffffffffffffffffffffffffff1614156113b5576040517f08c379a00000000000000000000000000000000000000000000000000000000081526004016113ac906119e9565b60405180910390fd5b6113be81611520565b50565b600481815481106113d157600080fd5b906000526020600020016000915054906101000a900473ffffffffffffffffffffffffffffffffffffffff1681565b6000600160008373ffffffffffffffffffffffffffffffffffffffff1673ffffffffffffffffffffffffffffffffffffffff16815260200190815260200160002060008473ffffffffffffffffffffffffffffffffffffffff1673ffffffffffffffffffffffffffffffffffffffff1681526020019081526020016000205411611514576001600260008473ffffffffffffffffffffffffffffffffffffffff1673ffffffffffffffffffffffffffffffffffffffff168152602001908152602001600020546114d09190611ade565b600260008473ffffffffffffffffffffffffffffffffffffffff1673ffffffffffffffffffffffffffffffffffffffff168152602001908152602001600020819055505b5050565b600033905090565b60008060009054906101000a900473ffffffffffffffffffffffffffffffffffffffff169050816000806101000a81548173ffffffffffffffffffffffffffffffffffffffff021916908373ffffffffffffffffffffffffffffffffffffffff1602179055508173ffffffffffffffffffffffffffffffffffffffff168173ffffffffffffffffffffffffffffffffffffffff167f8be0079c531659141344cd1fd0a4f28419497f9722a3daafe3b4186f6b6457e060405160405180910390a35050565b6000813590506115f381611fcd565b92915050565b60008151905061160881611fe4565b92915050565b60008151905061161d81611ffb565b92915050565b60008135905061163281612012565b92915050565b60008151905061164781612012565b92915050565b60008151905061165c81612040565b92915050565b60008151905061167181612029565b92915050565b60006020828403121561168957600080fd5b6000611697848285016115e4565b91505092915050565b600080604083850312156116b357600080fd5b60006116c1858286016115e4565b92505060206116d2858286016115e4565b9150509250929050565b6000602082840312156116ee57600080fd5b60006116fc848285016115f9565b91505092915050565b60006020828403121561171757600080fd5b600061172584828501611623565b91505092915050565b6000806040838503121561174157600080fd5b600061174f85828601611623565b9250506020611760858286016115e4565b9150509250929050565b600080600080600060a0868803121561178257600080fd5b60006117908882890161164d565b95505060206117a18882890161160e565b94505060406117b288828901611638565b93505060606117c388828901611638565b92505060806117d48882890161164d565b9150509295509295909350565b6000602082840312156117f357600080fd5b600061180184828501611662565b91505092915050565b61181381611d64565b82525050565b61182281611d76565b82525050565b61183181611dd9565b82525050565b6000611844601083611acd565b915061184f82611eb1565b602082019050919050565b6000611867602683611acd565b915061187282611eda565b604082019050919050565b600061188a601583611acd565b915061189582611f29565b602082019050919050565b60006118ad601a83611acd565b91506118b882611f52565b602082019050919050565b60006118d0602083611acd565b91506118db82611f7b565b602082019050919050565b60006118f3601b83611acd565b91506118fe82611fa4565b602082019050919050565b61191281611dac565b82525050565b600060208201905061192d600083018461180a565b92915050565b6000606082019050611948600083018661180a565b611955602083018561180a565b6119626040830184611909565b949350505050565b600060408201905061197f600083018561180a565b61198c6020830184611909565b9392505050565b60006020820190506119a86000830184611819565b92915050565b60006020820190506119c36000830184611828565b92915050565b600060208201905081810360008301526119e281611837565b9050919050565b60006020820190508181036000830152611a028161185a565b9050919050565b60006020820190508181036000830152611a228161187d565b9050919050565b60006020820190508181036000830152611a42816118a0565b9050919050565b60006020820190508181036000830152611a62816118c3565b9050919050565b60006020820190508181036000830152611a82816118e6565b9050919050565b6000602082019050611a9e6000830184611909565b92915050565b6000604082019050611ab96000830185611909565b611ac66020830184611909565b9392505050565b600082825260208201905092915050565b6000611ae982611dac565b9150611af483611dac565b9250827fffffffffffffffffffffffffffffffffffffffffffffffffffffffffffffffff03821115611b2957611b28611e46565b5b828201905092915050565b6000611b3f82611dac565b9150611b4a83611dac565b925082611b5a57611b59611e75565b5b828204905092915050565b6000808291508390505b6001851115611baf57808604811115611b8b57611b8a611e46565b5b6001851615611b9a5780820291505b8081029050611ba885611ea4565b9450611b6f565b94509492505050565b6000611bc382611dac565b9150611bce83611dac565b9250611bfb7fffffffffffffffffffffffffffffffffffffffffffffffffffffffffffffffff8484611c03565b905092915050565b600082611c135760019050611ccf565b81611c215760009050611ccf565b8160018114611c375760028114611c4157611c70565b6001915050611ccf565b60ff841115611c5357611c52611e46565b5b8360020a915084821115611c6a57611c69611e46565b5b50611ccf565b5060208310610133831016604e8410600b8410161715611ca55782820a905083811115611ca057611c9f611e46565b5b611ccf565b611cb28484846001611b65565b92509050818404811115611cc957611cc8611e46565b5b81810290505b9392505050565b6000611ce182611dac565b9150611cec83611dac565b9250817fffffffffffffffffffffffffffffffffffffffffffffffffffffffffffffffff0483118215151615611d2557611d24611e46565b5b828202905092915050565b6000611d3b82611dac565b9150611d4683611dac565b925082821015611d5957611d58611e46565b5b828203905092915050565b6000611d6f82611d8c565b9050919050565b60008115159050919050565b6000819050919050565b600073ffffffffffffffffffffffffffffffffffffffff82169050919050565b6000819050919050565b600060ff82169050919050565b600069ffffffffffffffffffff82169050919050565b6000611de482611deb565b9050919050565b6000611df682611d8c565b9050919050565b6000611e0882611dac565b91507fffffffffffffffffffffffffffffffffffffffffffffffffffffffffffffffff821415611e3b57611e3a611e46565b5b600182019050919050565b7f4e487b7100000000000000000000000000000000000000000000000000000000600052601160045260246000fd5b7f4e487b7100000000000000000000000000000000000000000000000000000000600052601260045260246000fd5b60008160011c9050919050565b7f4e6f20746f6b656e73207374616b656400000000000000000000000000000000600082015250565b7f4f776e61626c653a206e6577206f776e657220697320746865207a65726f206160008201527f6464726573730000000000000000000000000000000000000000000000000000602082015250565b7f546f6b656e206973206e6f7420616c6c6f7765642e0000000000000000000000600082015250565b7f416d6f756e74206d757374206265206d6f7265207468616e2030000000000000600082015250565b7f4f776e61626c653a2063616c6c6572206973206e6f7420746865206f776e6572600082015250565b7f5374616b696e672062616c616e63652063616e6e6f7420626520300000000000600082015250565b611fd681611d64565b8114611fe157600080fd5b50565b611fed81611d76565b8114611ff857600080fd5b50565b61200481611d82565b811461200f57600080fd5b50565b61201b81611dac565b811461202657600080fd5b50565b61203281611db6565b811461203d57600080fd5b50565b61204981611dc3565b811461205457600080fd5b5056fea2646970667358221220ce2dcc62041f609aa7e8bb30ba20ffacc8757642ad8516eb5dd042b286bef9ed64736f6c63430008040033",
  "linkReferences": {},
  "deployedLinkReferences": {}
}